{
  "contractName": "HashStorage",
  "abi": [
    {
      "constant": true,
      "inputs": [
        {
          "name": "",
          "type": "uint256"
        }
      ],
      "name": "hashes",
      "outputs": [
        {
          "name": "",
          "type": "uint256"
        }
      ],
      "payable": false,
      "stateMutability": "view",
      "type": "function"
    },
    {
      "anonymous": false,
      "inputs": [
        {
          "indexed": false,
          "name": "index",
          "type": "uint256"
        }
      ],
      "name": "HashIndexReturned",
      "type": "event"
    },
    {
      "anonymous": false,
      "inputs": [
        {
          "indexed": false,
          "name": "hash",
          "type": "uint256"
        }
      ],
      "name": "HashReturned",
      "type": "event"
    },
    {
      "constant": false,
      "inputs": [
        {
          "name": "newHash",
          "type": "uint256"
        }
      ],
      "name": "addHash",
      "outputs": [
        {
          "name": "",
          "type": "uint256"
        }
      ],
      "payable": false,
      "stateMutability": "nonpayable",
      "type": "function"
    },
    {
      "constant": true,
      "inputs": [],
      "name": "getHashes",
      "outputs": [
        {
          "name": "",
          "type": "uint256[]"
        }
      ],
      "payable": false,
      "stateMutability": "view",
      "type": "function"
    }
  ],
  "bytecode": "0x6060604052341561000f57600080fd5b6102b58061001e6000396000f300606060405260043610610057576000357c0100000000000000000000000000000000000000000000000000000000900463ffffffff1680632af1ea0f1461005c5780634245d48e14610093578063501895ae146100fd575b600080fd5b341561006757600080fd5b61007d6004808035906020019091905050610134565b6040518082815260200191505060405180910390f35b341561009e57600080fd5b6100a66101a2565b6040518080602001828103825283818151815260200191508051906020019060200280838360005b838110156100e95780820151818401526020810190506100ce565b505050509050019250505060405180910390f35b341561010857600080fd5b61011e6004808035906020019091905050610200565b6040518082815260200191505060405180910390f35b60008080548060010182816101499190610224565b9160005260206000209001600084909190915055507f4f382ab680fa3049e16e46f833e22d3b6bd4c1f9fa515117121fd69c29cd30446001600080549050036040518082815260200191505060405180910390a1919050565b6101aa610250565b60008054806020026020016040519081016040528092919081815260200182805480156101f657602002820191906000526020600020905b8154815260200190600101908083116101e2575b5050505050905090565b60008181548110151561020f57fe5b90600052602060002090016000915090505481565b81548183558181151161024b5781836000526020600020918201910161024a9190610264565b5b505050565b602060405190810160405280600081525090565b61028691905b8082111561028257600081600090555060010161026a565b5090565b905600a165627a7a7230582058eaac7d170e26709f089dac139802bce0947e82313607f6af5487423f0c75980029",
  "source": "pragma solidity ^0.4.17;\n\ncontract HashStorage {\n  uint256[] public hashes;\n  event HashIndexReturned(uint256 index);\n  event HashReturned(uint256 hash);\n\n  function addHash(uint256 newHash) external returns (uint256){\n    hashes.push(newHash);\n    HashIndexReturned(hashes.length - 1); // emit an event containing the index that can be picked up in JS\n  }\n\n  function getHashes() public view returns (uint256[]) {\n    return hashes;\n  }\n}\n",
  "sourcePath": "/home/cpjk/code/integrichain/dapp/contracts/HashStorage.sol",
  "compiler": {
    "name": "solc",
    "version": "0.4.19+commit.c4cbbb05.Emscripten.clang"
  },
  "schemaVersion": "1.0.1",
  "updatedAt": "2018-03-22T05:06:23.308Z"
}