{
  "contractName": "HashStorage",
  "abi": [
    {
      "constant": true,
      "inputs": [
        {
          "name": "",
          "type": "uint256"
        }
      ],
      "name": "hashes",
      "outputs": [
        {
          "name": "",
          "type": "uint256"
        }
      ],
      "payable": false,
      "stateMutability": "view",
      "type": "function"
    },
    {
      "anonymous": false,
      "inputs": [
        {
          "indexed": false,
          "name": "index",
          "type": "uint256"
        }
      ],
      "name": "HashIndexReturned",
      "type": "event"
    },
    {
      "constant": false,
      "inputs": [
        {
          "name": "newHash",
          "type": "uint256"
        }
      ],
      "name": "addHash",
      "outputs": [
        {
          "name": "",
          "type": "uint256"
        }
      ],
      "payable": false,
      "stateMutability": "nonpayable",
      "type": "function"
    },
    {
      "constant": true,
      "inputs": [
        {
          "name": "index",
          "type": "uint256"
        }
      ],
      "name": "getHashByIndex",
      "outputs": [
        {
          "name": "",
          "type": "uint256"
        }
      ],
      "payable": false,
      "stateMutability": "view",
      "type": "function"
    }
  ],
  "bytecode": "0x6060604052341561000f57600080fd5b61025a8061001e6000396000f300606060405260043610610057576000357c0100000000000000000000000000000000000000000000000000000000900463ffffffff1680632af1ea0f1461005c578063501895ae14610093578063ec058186146100ca575b600080fd5b341561006757600080fd5b61007d6004808035906020019091905050610101565b6040518082815260200191505060405180910390f35b341561009e57600080fd5b6100b4600480803590602001909190505061017a565b6040518082815260200191505060405180910390f35b34156100d557600080fd5b6100eb600480803590602001909190505061019e565b6040518082815260200191505060405180910390f35b600080805480600101828161011691906101dd565b9160005260206000209001600084909190915055507f4f382ab680fa3049e16e46f833e22d3b6bd4c1f9fa515117121fd69c29cd30446001600080549050036040518082815260200191505060405180910390a16001600080549050039050919050565b60008181548110151561018957fe5b90600052602060002090016000915090505481565b6000600160008054905003821115156101d3576000828154811015156101c057fe5b90600052602060002090015490506101d8565b600090505b919050565b815481835581811511610204578183600052602060002091820191016102039190610209565b5b505050565b61022b91905b8082111561022757600081600090555060010161020f565b5090565b905600a165627a7a72305820fe56285f7525c4164b38082edbe011997a7317ff51a19397e72a357b8b2085610029",
  "source": "pragma solidity ^0.4.17;\n\ncontract HashStorage {\n  uint256[] public hashes;\n  event HashIndexReturned(uint256 index);\n\n  function addHash(uint256 newHash) external returns (uint256){\n    hashes.push(newHash);\n    HashIndexReturned(hashes.length - 1);\n    return hashes.length - 1; // the array index of the new hash\n  }\n\n  function getHashByIndex(uint256 index) external view returns (uint256) {\n    if (index <= hashes.length - 1) { // ensure that the index is not out of bounds\n      return hashes[index];\n    } else {\n      return 0;\n    }\n  }\n}\n",
  "sourcePath": "/home/cpjk/code/integrichain/dapp/contracts/HashStorage.sol",
  "compiler": {
    "name": "solc",
    "version": "0.4.19+commit.c4cbbb05.Emscripten.clang"
  },
  "schemaVersion": "1.0.1",
  "updatedAt": "2018-03-21T21:59:48.945Z"
}