{
  "contractName": "HashStorage",
  "abi": [
    {
      "constant": true,
      "inputs": [],
      "name": "hash",
      "outputs": [
        {
          "name": "",
          "type": "uint256"
        }
      ],
      "payable": false,
      "stateMutability": "view",
      "type": "function"
    },
    {
      "constant": false,
      "inputs": [
        {
          "name": "newHash",
          "type": "uint256"
        }
      ],
      "name": "setHash",
      "outputs": [],
      "payable": false,
      "stateMutability": "nonpayable",
      "type": "function"
    }
  ],
  "bytecode": "0x6060604052341561000f57600080fd5b60d08061001d6000396000f3006060604052600436106049576000357c0100000000000000000000000000000000000000000000000000000000900463ffffffff16806309bd5a6014604e5780639658ad38146074575b600080fd5b3415605857600080fd5b605e6094565b6040518082815260200191505060405180910390f35b3415607e57600080fd5b60926004808035906020019091905050609a565b005b60005481565b80600081905550505600a165627a7a72305820c6b6931ea8febb92c22bfc100e2dbb77f74cb974a36582e7ee584739957bbff90029",
  "source": "pragma solidity ^0.4.17;\n\ncontract HashStorage {\n  uint256 public hash;\n\n  function setHash(uint256 newHash) external {\n    hash = newHash;\n  }\n}\n",
  "sourcePath": "/home/cpjk/code/integrichain/dapp/contracts/HashStorage.sol",
  "compiler": {
    "name": "solc",
    "version": "0.4.19+commit.c4cbbb05.Emscripten.clang"
  },
  "schemaVersion": "1.0.1",
  "updatedAt": "2018-03-16T00:44:07.462Z"
}